{
  "_format": "hh-sol-artifact-1",
  "contractName": "StakeContract",
  "sourceName": "contracts/StakeContract.sol",
  "abi": [
    {
      "inputs": [
        {
          "internalType": "string",
          "name": "_name",
          "type": "string"
        },
        {
          "internalType": "string",
          "name": "_symbol",
          "type": "string"
        }
      ],
      "stateMutability": "nonpayable",
      "type": "constructor"
    },
    {
      "anonymous": false,
      "inputs": [
        {
          "indexed": true,
          "internalType": "address",
          "name": "owner",
          "type": "address"
        },
        {
          "indexed": true,
          "internalType": "address",
          "name": "spender",
          "type": "address"
        },
        {
          "indexed": false,
          "internalType": "uint256",
          "name": "value",
          "type": "uint256"
        }
      ],
      "name": "Approval",
      "type": "event"
    },
    {
      "anonymous": false,
      "inputs": [
        {
          "indexed": true,
          "internalType": "address",
          "name": "previousOwner",
          "type": "address"
        },
        {
          "indexed": true,
          "internalType": "address",
          "name": "newOwner",
          "type": "address"
        }
      ],
      "name": "OwnershipTransferred",
      "type": "event"
    },
    {
      "anonymous": false,
      "inputs": [
        {
          "indexed": true,
          "internalType": "address",
          "name": "_from",
          "type": "address"
        },
        {
          "indexed": false,
          "internalType": "uint256",
          "name": "_value",
          "type": "uint256"
        },
        {
          "indexed": false,
          "internalType": "string",
          "name": "_message",
          "type": "string"
        }
      ],
      "name": "TokenStateAlert",
      "type": "event"
    },
    {
      "anonymous": false,
      "inputs": [
        {
          "indexed": true,
          "internalType": "address",
          "name": "from",
          "type": "address"
        },
        {
          "indexed": true,
          "internalType": "address",
          "name": "to",
          "type": "address"
        },
        {
          "indexed": false,
          "internalType": "uint256",
          "name": "value",
          "type": "uint256"
        }
      ],
      "name": "Transfer",
      "type": "event"
    },
    {
      "inputs": [
        {
          "internalType": "address",
          "name": "",
          "type": "address"
        },
        {
          "internalType": "address",
          "name": "",
          "type": "address"
        }
      ],
      "name": "allowance",
      "outputs": [
        {
          "internalType": "uint256",
          "name": "",
          "type": "uint256"
        }
      ],
      "stateMutability": "view",
      "type": "function"
    },
    {
      "inputs": [
        {
          "internalType": "address",
          "name": "spender",
          "type": "address"
        },
        {
          "internalType": "uint256",
          "name": "amount",
          "type": "uint256"
        }
      ],
      "name": "approve",
      "outputs": [
        {
          "internalType": "bool",
          "name": "",
          "type": "bool"
        }
      ],
      "stateMutability": "nonpayable",
      "type": "function"
    },
    {
      "inputs": [
        {
          "internalType": "address",
          "name": "",
          "type": "address"
        }
      ],
      "name": "balanceOf",
      "outputs": [
        {
          "internalType": "uint256",
          "name": "",
          "type": "uint256"
        }
      ],
      "stateMutability": "view",
      "type": "function"
    },
    {
      "inputs": [
        {
          "internalType": "uint256",
          "name": "amount",
          "type": "uint256"
        }
      ],
      "name": "burn",
      "outputs": [],
      "stateMutability": "nonpayable",
      "type": "function"
    },
    {
      "inputs": [],
      "name": "buyToken",
      "outputs": [],
      "stateMutability": "payable",
      "type": "function"
    },
    {
      "inputs": [],
      "name": "claimReward",
      "outputs": [
        {
          "internalType": "bool",
          "name": "",
          "type": "bool"
        }
      ],
      "stateMutability": "nonpayable",
      "type": "function"
    },
    {
      "inputs": [],
      "name": "decimals",
      "outputs": [
        {
          "internalType": "uint8",
          "name": "",
          "type": "uint8"
        }
      ],
      "stateMutability": "view",
      "type": "function"
    },
    {
      "inputs": [],
      "name": "getStakeBalance",
      "outputs": [
        {
          "internalType": "uint256",
          "name": "",
          "type": "uint256"
        }
      ],
      "stateMutability": "view",
      "type": "function"
    },
    {
      "inputs": [],
      "name": "getTotalSupply",
      "outputs": [
        {
          "internalType": "uint256",
          "name": "",
          "type": "uint256"
        }
      ],
      "stateMutability": "view",
      "type": "function"
    },
    {
      "inputs": [],
      "name": "getUserNumOfToken",
      "outputs": [
        {
          "internalType": "uint256",
          "name": "",
          "type": "uint256"
        }
      ],
      "stateMutability": "view",
      "type": "function"
    },
    {
      "inputs": [
        {
          "internalType": "uint256",
          "name": "_amount",
          "type": "uint256"
        }
      ],
      "name": "modifyBuyTokenPrice",
      "outputs": [],
      "stateMutability": "nonpayable",
      "type": "function"
    },
    {
      "inputs": [],
      "name": "name",
      "outputs": [
        {
          "internalType": "string",
          "name": "",
          "type": "string"
        }
      ],
      "stateMutability": "view",
      "type": "function"
    },
    {
      "inputs": [],
      "name": "owner",
      "outputs": [
        {
          "internalType": "address",
          "name": "",
          "type": "address"
        }
      ],
      "stateMutability": "view",
      "type": "function"
    },
    {
      "inputs": [],
      "name": "renounceOwnership",
      "outputs": [],
      "stateMutability": "nonpayable",
      "type": "function"
    },
    {
      "inputs": [
        {
          "internalType": "address",
          "name": "",
          "type": "address"
        }
      ],
      "name": "stakeBalance",
      "outputs": [
        {
          "internalType": "uint256",
          "name": "",
          "type": "uint256"
        }
      ],
      "stateMutability": "view",
      "type": "function"
    },
    {
      "inputs": [
        {
          "internalType": "uint256",
          "name": "amountOfToken",
          "type": "uint256"
        }
      ],
      "name": "stakeToken",
      "outputs": [],
      "stateMutability": "nonpayable",
      "type": "function"
    },
    {
      "inputs": [],
      "name": "symbol",
      "outputs": [
        {
          "internalType": "string",
          "name": "",
          "type": "string"
        }
      ],
      "stateMutability": "view",
      "type": "function"
    },
    {
      "inputs": [],
      "name": "totalSupply",
      "outputs": [
        {
          "internalType": "uint256",
          "name": "",
          "type": "uint256"
        }
      ],
      "stateMutability": "view",
      "type": "function"
    },
    {
      "inputs": [
        {
          "internalType": "address",
          "name": "recipient",
          "type": "address"
        },
        {
          "internalType": "uint256",
          "name": "amount",
          "type": "uint256"
        }
      ],
      "name": "transfer",
      "outputs": [
        {
          "internalType": "bool",
          "name": "",
          "type": "bool"
        }
      ],
      "stateMutability": "nonpayable",
      "type": "function"
    },
    {
      "inputs": [
        {
          "internalType": "address",
          "name": "sender",
          "type": "address"
        },
        {
          "internalType": "address",
          "name": "recipient",
          "type": "address"
        },
        {
          "internalType": "uint256",
          "name": "amount",
          "type": "uint256"
        }
      ],
      "name": "transferFrom",
      "outputs": [
        {
          "internalType": "bool",
          "name": "",
          "type": "bool"
        }
      ],
      "stateMutability": "nonpayable",
      "type": "function"
    },
    {
      "inputs": [
        {
          "internalType": "address",
          "name": "newOwner",
          "type": "address"
        }
      ],
      "name": "transferOwnership",
      "outputs": [],
      "stateMutability": "nonpayable",
      "type": "function"
    },
    {
      "inputs": [
        {
          "internalType": "uint256",
          "name": "amountOfToken",
          "type": "uint256"
        }
      ],
      "name": "unstakeToken",
      "outputs": [
        {
          "internalType": "bool",
          "name": "",
          "type": "bool"
        }
      ],
      "stateMutability": "nonpayable",
      "type": "function"
    }
  ],
  "bytecode": "0x608060405264e8d4a510006006556012600a60006101000a81548160ff021916908360ff1602179055503480156200003657600080fd5b50604051620024573803806200245783398181016040528101906200005c9190620003c2565b6200007c620000706200019f60201b60201c565b620001a760201b60201c565b6200008c6200026b60201b60201c565b600760006101000a81548173ffffffffffffffffffffffffffffffffffffffff021916908373ffffffffffffffffffffffffffffffffffffffff1602179055508160089080519060200190620000e492919062000294565b508060099080519060200190620000fd92919062000294565b506103e860016000600760009054906101000a900473ffffffffffffffffffffffffffffffffffffffff1673ffffffffffffffffffffffffffffffffffffffff1673ffffffffffffffffffffffffffffffffffffffff1681526020019081526020016000206000828254620001739190620004a6565b925050819055506103e860056000828254620001909190620004a6565b92505081905550505062000661565b600033905090565b60008060009054906101000a900473ffffffffffffffffffffffffffffffffffffffff169050816000806101000a81548173ffffffffffffffffffffffffffffffffffffffff021916908373ffffffffffffffffffffffffffffffffffffffff1602179055508173ffffffffffffffffffffffffffffffffffffffff168173ffffffffffffffffffffffffffffffffffffffff167f8be0079c531659141344cd1fd0a4f28419497f9722a3daafe3b4186f6b6457e060405160405180910390a35050565b60008060009054906101000a900473ffffffffffffffffffffffffffffffffffffffff16905090565b828054620002a29062000543565b90600052602060002090601f016020900481019282620002c6576000855562000312565b82601f10620002e157805160ff191683800117855562000312565b8280016001018555821562000312579182015b8281111562000311578251825591602001919060010190620002f4565b5b50905062000321919062000325565b5090565b5b808211156200034057600081600090555060010162000326565b5090565b60006200035b620003558462000470565b62000447565b9050828152602081018484840111156200037a576200037962000641565b5b620003878482856200050d565b509392505050565b600082601f830112620003a757620003a66200063c565b5b8151620003b984826020860162000344565b91505092915050565b60008060408385031215620003dc57620003db6200064b565b5b600083015167ffffffffffffffff811115620003fd57620003fc62000646565b5b6200040b858286016200038f565b925050602083015167ffffffffffffffff8111156200042f576200042e62000646565b5b6200043d858286016200038f565b9150509250929050565b60006200045362000466565b905062000461828262000579565b919050565b6000604051905090565b600067ffffffffffffffff8211156200048e576200048d6200060d565b5b620004998262000650565b9050602081019050919050565b6000620004b38262000503565b9150620004c08362000503565b9250827fffffffffffffffffffffffffffffffffffffffffffffffffffffffffffffffff03821115620004f857620004f7620005af565b5b828201905092915050565b6000819050919050565b60005b838110156200052d57808201518184015260208101905062000510565b838111156200053d576000848401525b50505050565b600060028204905060018216806200055c57607f821691505b60208210811415620005735762000572620005de565b5b50919050565b620005848262000650565b810181811067ffffffffffffffff82111715620005a657620005a56200060d565b5b80604052505050565b7f4e487b7100000000000000000000000000000000000000000000000000000000600052601160045260246000fd5b7f4e487b7100000000000000000000000000000000000000000000000000000000600052602260045260246000fd5b7f4e487b7100000000000000000000000000000000000000000000000000000000600052604160045260246000fd5b600080fd5b600080fd5b600080fd5b600080fd5b6000601f19601f8301169050919050565b611de680620006716000396000f3fe6080604052600436106101355760003560e01c80638da5cb5b116100ab578063c4e41b221161006f578063c4e41b221461041f578063cda6b8471461044a578063d427cad614610473578063dd62ed3e1461049c578063e3f009cd146104d9578063f2fde38b1461050457610135565b80638da5cb5b1461035757806395d89b4114610382578063a4821719146103ad578063a9059cbb146103b7578063b88a802f146103f457610135565b8063313ce567116100fd578063313ce56714610247578063427c7f381461027257806342966c681461029d5780634e7c57a6146102c657806370a0823114610303578063715018a61461034057610135565b806306fdde031461013a578063095ea7b31461016557806318160ddd146101a257806323b872dd146101cd5780632cfb66881461020a575b600080fd5b34801561014657600080fd5b5061014f61052d565b60405161015c919061181d565b60405180910390f35b34801561017157600080fd5b5061018c60048036038101906101879190611610565b6105bb565b6040516101999190611802565b60405180910390f35b3480156101ae57600080fd5b506101b76106ad565b6040516101c491906118ff565b60405180910390f35b3480156101d957600080fd5b506101f460048036038101906101ef91906115bd565b6106b3565b6040516102019190611802565b60405180910390f35b34801561021657600080fd5b50610231600480360381019061022c9190611650565b610864565b60405161023e9190611802565b60405180910390f35b34801561025357600080fd5b5061025c61099d565b6040516102699190611948565b60405180910390f35b34801561027e57600080fd5b506102876109b0565b60405161029491906118ff565b60405180910390f35b3480156102a957600080fd5b506102c460048036038101906102bf9190611650565b6109f7565b005b3480156102d257600080fd5b506102ed60048036038101906102e89190611550565b610acf565b6040516102fa91906118ff565b60405180910390f35b34801561030f57600080fd5b5061032a60048036038101906103259190611550565b610ae7565b60405161033791906118ff565b60405180910390f35b34801561034c57600080fd5b50610355610aff565b005b34801561036357600080fd5b5061036c610b87565b60405161037991906117e7565b60405180910390f35b34801561038e57600080fd5b50610397610bb0565b6040516103a4919061181d565b60405180910390f35b6103b5610c3e565b005b3480156103c357600080fd5b506103de60048036038101906103d99190611610565b610ca1565b6040516103eb9190611802565b60405180910390f35b34801561040057600080fd5b50610409610dbe565b6040516104169190611802565b60405180910390f35b34801561042b57600080fd5b50610434610fb6565b60405161044191906118ff565b60405180910390f35b34801561045657600080fd5b50610471600480360381019061046c9190611650565b610fc0565b005b34801561047f57600080fd5b5061049a60048036038101906104959190611650565b611183565b005b3480156104a857600080fd5b506104c360048036038101906104be919061157d565b61121d565b6040516104d091906118ff565b60405180910390f35b3480156104e557600080fd5b506104ee611242565b6040516104fb91906118ff565b60405180910390f35b34801561051057600080fd5b5061052b60048036038101906105269190611550565b611289565b005b6008805461053a90611b1c565b80601f016020809104026020016040519081016040528092919081815260200182805461056690611b1c565b80156105b35780601f10610588576101008083540402835291602001916105b3565b820191906000526020600020905b81548152906001019060200180831161059657829003601f168201915b505050505081565b600081600460003373ffffffffffffffffffffffffffffffffffffffff1673ffffffffffffffffffffffffffffffffffffffff16815260200190815260200160002060008573ffffffffffffffffffffffffffffffffffffffff1673ffffffffffffffffffffffffffffffffffffffff168152602001908152602001600020819055508273ffffffffffffffffffffffffffffffffffffffff163373ffffffffffffffffffffffffffffffffffffffff167f8c5be1e5ebec7d5bd14f71427d1e84f3dd0314c0f7b2291e5b200ac8c7c3b9258460405161069b91906118ff565b60405180910390a36001905092915050565b60055481565b600081600460008673ffffffffffffffffffffffffffffffffffffffff1673ffffffffffffffffffffffffffffffffffffffff16815260200190815260200160002060003373ffffffffffffffffffffffffffffffffffffffff1673ffffffffffffffffffffffffffffffffffffffff16815260200190815260200160002060008282546107419190611a60565b9250508190555081600160008673ffffffffffffffffffffffffffffffffffffffff1673ffffffffffffffffffffffffffffffffffffffff16815260200190815260200160002060008282546107979190611a60565b9250508190555081600160008573ffffffffffffffffffffffffffffffffffffffff1673ffffffffffffffffffffffffffffffffffffffff16815260200190815260200160002060008282546107ed919061197f565b925050819055508273ffffffffffffffffffffffffffffffffffffffff168473ffffffffffffffffffffffffffffffffffffffff167fddf252ad1be2c89b69c2b068fc378daa952ba7f163c4a11628f55a4df523b3ef8460405161085191906118ff565b60405180910390a3600190509392505050565b600081600260003373ffffffffffffffffffffffffffffffffffffffff1673ffffffffffffffffffffffffffffffffffffffff1681526020019081526020016000205410156108e8576040517f08c379a00000000000000000000000000000000000000000000000000000000081526004016108df906118df565b60405180910390fd5b81600260003373ffffffffffffffffffffffffffffffffffffffff1673ffffffffffffffffffffffffffffffffffffffff16815260200190815260200160002060008282546109379190611a60565b9250508190555081600160003373ffffffffffffffffffffffffffffffffffffffff1673ffffffffffffffffffffffffffffffffffffffff168152602001908152602001600020600082825461098d919061197f565b9250508190555060019050919050565b600a60009054906101000a900460ff1681565b6000600260003373ffffffffffffffffffffffffffffffffffffffff1673ffffffffffffffffffffffffffffffffffffffff16815260200190815260200160002054905090565b80600160003373ffffffffffffffffffffffffffffffffffffffff1673ffffffffffffffffffffffffffffffffffffffff1681526020019081526020016000206000828254610a469190611a60565b925050819055508060056000828254610a5f9190611a60565b92505081905550600073ffffffffffffffffffffffffffffffffffffffff163373ffffffffffffffffffffffffffffffffffffffff167fddf252ad1be2c89b69c2b068fc378daa952ba7f163c4a11628f55a4df523b3ef83604051610ac491906118ff565b60405180910390a350565b60026020528060005260406000206000915090505481565b60016020528060005260406000206000915090505481565b610b07611381565b73ffffffffffffffffffffffffffffffffffffffff16610b25610b87565b73ffffffffffffffffffffffffffffffffffffffff1614610b7b576040517f08c379a0000000000000000000000000000000000000000000000000000000008152600401610b729061189f565b60405180910390fd5b610b856000611389565b565b60008060009054906101000a900473ffffffffffffffffffffffffffffffffffffffff16905090565b60098054610bbd90611b1c565b80601f0160208091040260200160405190810160405280929190818152602001828054610be990611b1c565b8015610c365780601f10610c0b57610100808354040283529160200191610c36565b820191906000526020600020905b815481529060010190602001808311610c1957829003601f168201915b505050505081565b600060065434610c4e91906119d5565b905042600360003373ffffffffffffffffffffffffffffffffffffffff1673ffffffffffffffffffffffffffffffffffffffff16815260200190815260200160002081905550610c9e813361144d565b50565b600081600160003373ffffffffffffffffffffffffffffffffffffffff1673ffffffffffffffffffffffffffffffffffffffff1681526020019081526020016000206000828254610cf29190611a60565b9250508190555081600160008573ffffffffffffffffffffffffffffffffffffffff1673ffffffffffffffffffffffffffffffffffffffff1681526020019081526020016000206000828254610d48919061197f565b925050819055508273ffffffffffffffffffffffffffffffffffffffff163373ffffffffffffffffffffffffffffffffffffffff167fddf252ad1be2c89b69c2b068fc378daa952ba7f163c4a11628f55a4df523b3ef84604051610dac91906118ff565b60405180910390a36001905092915050565b6000600360003373ffffffffffffffffffffffffffffffffffffffff1673ffffffffffffffffffffffffffffffffffffffff1681526020019081526020016000205462093a8081610e0f919061197f565b421015610e51576040517f08c379a0000000000000000000000000000000000000000000000000000000008152600401610e48906118bf565b60405180910390fd5b60006064600260003373ffffffffffffffffffffffffffffffffffffffff1673ffffffffffffffffffffffffffffffffffffffff168152602001908152602001600020546001610ea19190611a06565b610eab91906119d5565b905080600160003373ffffffffffffffffffffffffffffffffffffffff1673ffffffffffffffffffffffffffffffffffffffff1681526020019081526020016000206000828254610efc919061197f565b9250508190555042600360003373ffffffffffffffffffffffffffffffffffffffff1673ffffffffffffffffffffffffffffffffffffffff168152602001908152602001600020819055503373ffffffffffffffffffffffffffffffffffffffff16600073ffffffffffffffffffffffffffffffffffffffff167fddf252ad1be2c89b69c2b068fc378daa952ba7f163c4a11628f55a4df523b3ef83604051610fa591906118ff565b60405180910390a360019250505090565b6000600554905090565b80600160003373ffffffffffffffffffffffffffffffffffffffff1673ffffffffffffffffffffffffffffffffffffffff168152602001908152602001600020541015611042576040517f08c379a00000000000000000000000000000000000000000000000000000000081526004016110399061187f565b60405180910390fd5b80600160003373ffffffffffffffffffffffffffffffffffffffff1673ffffffffffffffffffffffffffffffffffffffff16815260200190815260200160002060008282546110919190611a60565b9250508190555080600260003373ffffffffffffffffffffffffffffffffffffffff1673ffffffffffffffffffffffffffffffffffffffff16815260200190815260200160002060008282546110e7919061197f565b9250508190555042600360003373ffffffffffffffffffffffffffffffffffffffff1673ffffffffffffffffffffffffffffffffffffffff168152602001908152602001600020819055503373ffffffffffffffffffffffffffffffffffffffff167fb7f5371d49b020ce12303cebe280b8cbc2d085aad82d59ad131487bc133a0de082604051611178919061191a565b60405180910390a250565b600760009054906101000a900473ffffffffffffffffffffffffffffffffffffffff1673ffffffffffffffffffffffffffffffffffffffff163373ffffffffffffffffffffffffffffffffffffffff1614611213576040517f08c379a000000000000000000000000000000000000000000000000000000000815260040161120a9061185f565b60405180910390fd5b8060068190555050565b6004602052816000526040600020602052806000526040600020600091509150505481565b6000600160003373ffffffffffffffffffffffffffffffffffffffff1673ffffffffffffffffffffffffffffffffffffffff16815260200190815260200160002054905090565b611291611381565b73ffffffffffffffffffffffffffffffffffffffff166112af610b87565b73ffffffffffffffffffffffffffffffffffffffff1614611305576040517f08c379a00000000000000000000000000000000000000000000000000000000081526004016112fc9061189f565b60405180910390fd5b600073ffffffffffffffffffffffffffffffffffffffff168173ffffffffffffffffffffffffffffffffffffffff161415611375576040517f08c379a000000000000000000000000000000000000000000000000000000000815260040161136c9061183f565b60405180910390fd5b61137e81611389565b50565b600033905090565b60008060009054906101000a900473ffffffffffffffffffffffffffffffffffffffff169050816000806101000a81548173ffffffffffffffffffffffffffffffffffffffff021916908373ffffffffffffffffffffffffffffffffffffffff1602179055508173ffffffffffffffffffffffffffffffffffffffff168173ffffffffffffffffffffffffffffffffffffffff167f8be0079c531659141344cd1fd0a4f28419497f9722a3daafe3b4186f6b6457e060405160405180910390a35050565b81600160008373ffffffffffffffffffffffffffffffffffffffff1673ffffffffffffffffffffffffffffffffffffffff168152602001908152602001600020600082825461149c919061197f565b9250508190555081600560008282546114b5919061197f565b925050819055508073ffffffffffffffffffffffffffffffffffffffff16600073ffffffffffffffffffffffffffffffffffffffff167fddf252ad1be2c89b69c2b068fc378daa952ba7f163c4a11628f55a4df523b3ef8460405161151a91906118ff565b60405180910390a35050565b60008135905061153581611d82565b92915050565b60008135905061154a81611d99565b92915050565b60006020828403121561156657611565611bdb565b5b600061157484828501611526565b91505092915050565b6000806040838503121561159457611593611bdb565b5b60006115a285828601611526565b92505060206115b385828601611526565b9150509250929050565b6000806000606084860312156115d6576115d5611bdb565b5b60006115e486828701611526565b93505060206115f586828701611526565b92505060406116068682870161153b565b9150509250925092565b6000806040838503121561162757611626611bdb565b5b600061163585828601611526565b92505060206116468582860161153b565b9150509250929050565b60006020828403121561166657611665611bdb565b5b60006116748482850161153b565b91505092915050565b61168681611a94565b82525050565b61169581611aa6565b82525050565b60006116a682611963565b6116b0818561196e565b93506116c0818560208601611ae9565b6116c981611be0565b840191505092915050565b60006116e160268361196e565b91506116ec82611bf1565b604082019050919050565b6000611704600c8361196e565b915061170f82611c40565b602082019050919050565b600061172760098361196e565b915061173282611c69565b602082019050919050565b600061174a60108361196e565b915061175582611c92565b602082019050919050565b600061176d60208361196e565b915061177882611cbb565b602082019050919050565b600061179060468361196e565b915061179b82611ce4565b606082019050919050565b60006117b3601c8361196e565b91506117be82611d59565b602082019050919050565b6117d281611ad2565b82525050565b6117e181611adc565b82525050565b60006020820190506117fc600083018461167d565b92915050565b6000602082019050611817600083018461168c565b92915050565b60006020820190508181036000830152611837818461169b565b905092915050565b60006020820190508181036000830152611858816116d4565b9050919050565b600060208201905081810360008301526118788161171a565b9050919050565b600060208201905081810360008301526118988161173d565b9050919050565b600060208201905081810360008301526118b881611760565b9050919050565b600060208201905081810360008301526118d881611783565b9050919050565b600060208201905081810360008301526118f8816117a6565b9050919050565b600060208201905061191460008301846117c9565b92915050565b600060408201905061192f60008301846117c9565b8181036020830152611940816116f7565b905092915050565b600060208201905061195d60008301846117d8565b92915050565b600081519050919050565b600082825260208201905092915050565b600061198a82611ad2565b915061199583611ad2565b9250827fffffffffffffffffffffffffffffffffffffffffffffffffffffffffffffffff038211156119ca576119c9611b4e565b5b828201905092915050565b60006119e082611ad2565b91506119eb83611ad2565b9250826119fb576119fa611b7d565b5b828204905092915050565b6000611a1182611ad2565b9150611a1c83611ad2565b9250817fffffffffffffffffffffffffffffffffffffffffffffffffffffffffffffffff0483118215151615611a5557611a54611b4e565b5b828202905092915050565b6000611a6b82611ad2565b9150611a7683611ad2565b925082821015611a8957611a88611b4e565b5b828203905092915050565b6000611a9f82611ab2565b9050919050565b60008115159050919050565b600073ffffffffffffffffffffffffffffffffffffffff82169050919050565b6000819050919050565b600060ff82169050919050565b60005b83811015611b07578082015181840152602081019050611aec565b83811115611b16576000848401525b50505050565b60006002820490506001821680611b3457607f821691505b60208210811415611b4857611b47611bac565b5b50919050565b7f4e487b7100000000000000000000000000000000000000000000000000000000600052601160045260246000fd5b7f4e487b7100000000000000000000000000000000000000000000000000000000600052601260045260246000fd5b7f4e487b7100000000000000000000000000000000000000000000000000000000600052602260045260246000fd5b600080fd5b6000601f19601f8301169050919050565b7f4f776e61626c653a206e6577206f776e657220697320746865207a65726f206160008201527f6464726573730000000000000000000000000000000000000000000000000000602082015250565b7f546f6b656e205374616b65640000000000000000000000000000000000000000600082015250565b7f4e6f74204f776e65720000000000000000000000000000000000000000000000600082015250565b7f4e6f7420656e6f75676820746f6b656e00000000000000000000000000000000600082015250565b7f4f776e61626c653a2063616c6c6572206973206e6f7420746865206f776e6572600082015250565b7f596f7572207374616b652061676520697320656974686572206c65737320746860008201527f616e206f6e65207765656b206f722072657761726420686173206265656e206360208201527f6c61696d65640000000000000000000000000000000000000000000000000000604082015250565b7f416d6f756e7420657863656564732063757272656e74207374616b6500000000600082015250565b611d8b81611a94565b8114611d9657600080fd5b50565b611da281611ad2565b8114611dad57600080fd5b5056fea26469706673582212206041a608291e1b19fade259793097110b9e2551a95b54061aa1d6c9bea1a9e0364736f6c63430008070033",
  "linkReferences": {},
  "deployedLinkReferences": {}
}